:020000040000FA
:10000000C00300106D0100007101000073010000C9
:100010007501000077010000790100000000000078
:100020000000000000000000000000007B01000054
:100030007D010000000000007F0100008101000040
:10004000830100000D2900008301000083010000EE
:100050008301000083010000830100008301000090
:10006000AF2A00008301000083010000830100002B
:100070008301000083010000830100008301000070
:100080008301000083010000830100008301000060
:100090008301000083010000830100008301000050
:1000A0000B25000083010000830100008301000094
:1000B0008301000083010000830100008301000030
:1000C00083010000830100008301000000F002F8BA
:1000D00000F03CF80AA090E8000C82448344AAF1A6
:1000E0000107DA4501D100F031F8AFF2090EBAE8A4
:1000F0000F0013F0010F18BFFB1A43F0010318475C
:10010000F432000014330000103A24BF78C878C1DC
:10011000FAD8520724BF30C830C144BF04680C600D
:10012000704700000023002400250026103A28BF55
:1001300078C1FBD8520728BF30C148BF0B60704759
:100140001FB503F0CBF81FBD10B510BD02F0B6FD12
:100150001146FFF7F5FF02F0CBFA02F0D4FD03B42D
:10016000FFF7F2FF03BC02F0D9FD0000084800478A
:10017000FEE7FEE7FEE7FEE7FEE7FEE7FEE7FEE757
:10018000FEE7FEE703480449024A044B70470000BB
:10019000CD000000C0010010C0030010C00100101D
:1001A00010B5202801D2034601E0A0F120031A4631
:1001B000202814D2494B1C684FF0030303FA02F3C2
:1001C00024EA0304464BC3F8A841444B1C6801FAD7
:1001D00002F344EA0304424BC3F8A84113E0414B45
:1001E0001C684FF0030303FA02F324EA03043C4BB8
:1001F000C3F8AC413B4B1B6801FA02F443EA040329
:10020000374CC4F8AC3110BD0146202903D20A4650
:10021000324B186803E0A1F12002324B186820FA33
:1002200002F303F00300704770B504462E480568DA
:100230002046FFF7E9FF064636B1012E06D0022E12
:1002400006D0032E08D105E0042605E0012603E0D0
:10025000022601E0082600BF00BFB5FBF6F52846E0
:1002600070BD01290AD1214A1368214A00EA02021D
:1002700043EA02031A4AC2F8C4300AE049B91B4AE9
:1002800013681B4A22EA000203EA0203144AC2F876
:10029000C430704700201749086030BF7047042001
:1002A000154908604FF000000D49C1F8C00030BF8B
:1002B00070470420104908604FF001000849C1F858
:1002C000C00030BF704704200B4908604FF00300A6
:1002D0000349C1F8C00030BF70470000A8C10F40FB
:1002E00000C00F40ACC10F4000000010C4C00F4060
:1002F000DEF7EFEFC0C00F4010ED00E0FFFFFFFFA3
:1003000097480068C0F30160032864D195480068ED
:1003100010F0030006D0012823D002283FD0032884
:1003200058D100E000BF8E480068C0F30E0000F115
:1003300001004FEA40018C4801FB00F18B48D0F8E6
:100340008800C0F3074000F10100B1FBF0F18848DC
:100350000068C0B200F10100B1FBF0F0854908600F
:1003600038E07F480068C0F30E0000F101004FEA5A
:100370004001814801FB00F17C48D0F88800C0F3BF
:10038000074000F10100B1FBF0F179480068C0B20C
:1003900000F10100B1FBF0F0764908601AE0704806
:1003A0000068C0F30E0000F101004FEA00416F4801
:1003B000D0F88800C0F3074000F10100B1FBF0F174
:1003C0006B480068C0B200F10100B1FBF0F0694970
:1003D000086000BF2FE06348006810F0030006D0FB
:1003E000012810D0022819D0032823D100E000BF33
:1003F0005F480068C0B200F101005B49B1FBF0F05A
:100400005C49086016E05A480068C0B200F101007B
:100410005949B1FBF0F0574908600BE054480068B7
:10042000C0B200F101004FF40041B1FBF0F05149BE
:10043000086000BF00BF70474FF0407001142022D9
:100440004E4B1A60494AD2F8A02112F0200F05D075
:1004500000BF4A4A126812F0400FFAD00322444B00
:100460001A604FF00002414BC3F8A821444B1A60B8
:100470004FF001023B4B1A60424A434B1A604FF067
:10048000AA02424B1A604FF055021A604FF0010267
:100490003F4B1A604FF0AA023C4B1A604FF05502D6
:1004A000324BC3F88C2000BF2D4A126812F0806FC7
:1004B000FAD00322364B1A604FF0AA022B4BC3F836
:1004C0008C204FF05502314B1A6000BF244A12684D
:1004D00002F04072B2F1407FF8D123222D4B1A6016
:1004E0004FF0AA02214BC3F8AC204FF055022A4B23
:1004F0001A604FF00102294B1A604FF0AA02264BF6
:100500001A604FF05502194BC3F8AC2000BF244AC3
:10051000126812F4806FFAD00322204B1A604FF059
:10052000AA02124BC3F8AC204FF055021A4B1A60C6
:1005300000BF1B4A126802F44072B2F5407FF8D146
:10054000184A194B1A604FF00002084BC3F8C82133
:1005500043F23A021A604FF00002144B1A607047DF
:1005600088C00F400CC10F4000093D0000C00F4083
:1005700004C10F4000000010001BB700A0C10F40D5
:10058000ACC10F406300050084C00F408CC00F4019
:1005900080C00F40A4C00F40ACC00F40A0C00F40AF
:1005A000A8C00F40DE872804C4C00F4008ED00E05B
:1005B0004FF0FF31264A11604FF001022549C1F882
:1005C00084204FF0FF314FF0E022C2F880124FF04C
:1005D000010221490A604FF0000004E000221F4997
:1005E0000A54411CC8B22028F8DB70474FF0206144
:1005F0001B4A11604FF000014FF0E022C2F8081DC5
:100600001849194A11604FF0000102F1040211600B
:1006100002F104021160084605E0002212490C3183
:100620000A54411CC8B22028F7DB00210F4A116090
:100630004FF0FF314FF0E022C2F8281D0C4A116044
:100640004FF0E022C2F8301D70470A490860704739
:1006500080E100E000E100E084E200E000E400E08E
:1006600004ED00E00000FA050CED00E024ED00E0F0
:100670002CED00E008ED00E0F0B50B4644003B4DEA
:100680001946102B01D3103B641C55F824604FEA27
:10069000430C032707FA0CF7BE4345F8246055F8CE
:1006A00024605F0002FA07F73E4345F82460F0BD7E
:1006B000F0B50B4644002D4D40351946102B01D3A3
:1006C000103B641C55F824604FEA430C032707FADB
:1006D0000CF7BE4345F8246055F824605F0002FA29
:1006E00007F73E4345F82460F0BD30B51F4B683333
:1006F000012A07D153F8204001258D402C4343F8AF
:10070000204006E053F8204001258D40AC4343F8DB
:10071000204030BD012806D11449896A41F0080102
:10072000124A916206E028B91049896A21F008014D
:100730000E4A91627047012800D1052201B90A22B0
:100740000A4BDA67704710B50446A27861782078C2
:10075000FFF792FFE27861782078FFF7A9FF22790E
:1007600061782078FFF7C1FF10BD000000C0024093
:1007700070B5054635B1012D09D0022D0CD0032DE1
:1007800014D10EE00220FFF74FFD04460EE00420D6
:10079000FFF74AFD044609E02C20FFF745FD04461B
:1007A00004E02E20FFF740FD044600BF00BF2046B6
:1007B00070BD7FB504460D462046FFF7D9FF0646BB
:1007C0000020CDE90260DDE90201A5FB000205FB86
:1007D0000121CDE90001FEA00CC8009802F0F4F957
:1007E000CDE90201029804B070BD01464FF0FF3020
:1007F000B1F1402F01D100200DE0F74A914201D123
:10080000012008E0F54A914201D1022003E0F44AB8
:10081000914200D10320704770B504460E46B4F1F2
:10082000402F08D0EC48844205D0EC48844202D0E6
:10083000EB48844200D103E0AC21EAA001F07EFF46
:100840004EB1012E07D0022E05D0032E03D0042E68
:1008500001D0052E00D103E0AD21E2A001F06EFF32
:1008600021680120B0400140CDB20DB1012070BD22
:100870000020FCE770B504460E46B4F1402F08D0C6
:10088000D548844205D0D548844202D0D448844219
:1008900000D103E0CA21D3A001F050FF4EB1012ED8
:1008A00007D0022E05D0032E03D0042E01D0052E32
:1008B00000D103E0CB21CBA001F040FF2068311D27
:1008C00001228A401040C5B20DB1012070BD002048
:1008D000FCE770B504460D46B4F1402F08D0BE4881
:1008E000844205D0BD48844202D0BD48844200D134
:1008F00003E0E321BBA001F021FF4DB1012D07D0A2
:10090000022D05D0032D03D0042D01D0052D00D1DB
:1009100003E0E421B3A001F011FF0120A840206012
:1009200070BD70B505460C46B5F1402F08D0AA48F9
:10093000854205D0A948854202D0A948854200D108
:1009400003E0FA21A7A001F0F9FE4CB1012C07D079
:10095000022C05D0032C03D0042C01D0052C00D18F
:1009600003E0FB219FA001F0E9FE201D0121814051
:10097000296070BD28B90A460123114613705360DF
:1009800004E00A4600231146537000BF70472DE96A
:10099000F04704460E461546B4F1402F08D08E4865
:1009A000844205D08D48844202D08D48844200D1D3
:1009B00004E040F231118BA001F0C0FE1EB1012E07
:1009C00001D000D000D104E04FF4997185A001F06E
:1009D000B5FEB4F1402F08D101210220FFF741FC00
:1009E00000210220FFF7DCFB22E07B48844208D193
:1009F00001210420FFF735FC00210420FFF7D0FB84
:100A000016E07648844208D101218805FFF729FCC9
:100A100000212C20FFF7C4FB0AE07148844207D173
:100A20000121C805FFF71DFC00212E20FFF7B8FBB0
:100A3000A06A20F00300A062A06AA0620020A0606B
:100A40002061E060606840F002006060606820F053
:100A5000020060608EB92F463D46387818B9786834
:100A6000401EE06017E02046FFF7BFFE8146796830
:100A7000FFF79FFE401EE0600DE0A846A06A20F050
:100A80000C00A062454698F80100012803D1A06A35
:100A900040F00400A0624FF0FF302060BDE8F08716
:100AA00010B50446B4F1402F08D04B48844205D01D
:100AB0004A48844202D04A48844200D104E040F2CD
:100AC0007F1148A001F03AFE00206060B4F1402F91
:100AD00004D100210220FFF7C4FB18E03E48844205
:100AE00004D100210420FFF7BCFB10E03B48844206
:100AF00005D100214FF48000FFF7B3FB07E0384831
:100B0000844204D100214FF48000FFF7AAFB10BDFE
:100B100070B504460D46B4F1402F08D02E488442EB
:100B200005D02E48844202D02D48844200D104E0F2
:100B30004FF4D0712BA001F001FE012D04D16068AB
:100B400040F00100606003E0606820F00100606038
:100B500070BD10B50446B4F1402F08D01E48844241
:100B600005D01E48844202D01D48844200D104E0D2
:100B70004FF4DC711BA001F0E1FD606840F0020061
:100B80006060606820F00200606010BD70B50446CF
:100B90000D46B4F1402F08D00F48844205D00F48CD
:100BA000844202D00E48844200D104E040F2D711C2
:100BB0000CA001F0C3FD287940B12879012805D0A7
:100BC0002879022802D0287903281BD120E00000D0
:100BD00040420F000000000000800040000009407B
:100BE000004009402E2E5C46574C49425C736F759D
:100BF0007263655C6C7063313778785F74696D65BA
:100C0000722E63004FF4EC71AFF2280001F096FDF4
:100C1000287830B1012807D0022808D003280CD149
:100C200008E0A868A0610AE0A868E06107E0A86899
:100C3000206204E0A868606201E000BFFEE700BF38
:100C40006169287800EB4002072090408143616190
:100C5000687838B16169287800EB40020120904043
:100C600001436161E87840B16269287800EB400097
:100C7000401C012181400A436261A87840B1626949
:100C8000287800EB4000801C012181400A4362610A
:100C9000E06B2978042202EB410203219140884352
:100CA000E063287900F003002978042202EB410177
:100CB0008840E16B0843E06370BD70B504460E46A2
:100CC0001546B4F1402F08D04348844205D043482C
:100CD000844202D04248844200D105E040F20D2116
:100CE000AFF2001001F02AFD36B1012E06D0022E1F
:100CF00006D0032E08D105E0A56107E0E56105E017
:100D0000256203E0656201E000BFFEE700BF70BD41
:100D100070B504460D46B4F1402F08D02E488442E9
:100D200005D02E48844202D02D48844200D105E0EF
:100D300040F23321AFF2541001F000FDA16A28788F
:100D400000EB4002072090408143A162687838B1EF
:100D5000A16A287800EB4002012090400143A16283
:100D6000A87840B1A26A287800EB4001491C012014
:100D700088400243A262E87840B1A26A287800EB7A
:100D80004001891C012088400243A26270BD70B5F9
:100D900004460D46B4F1402F08D00F48844205D0D8
:100DA0000E48844202D00E48844200D105E040F251
:100DB0004E21AFF2D01001F0C1FC0DB1012D00D1D8
:100DC00005E040F24F21AFF2E41001F0B7FC0DB99D
:100DD000E06A70BD206BFCE7008000400000094025
:100DE000004009402DE9F34F93B000201190FF49D6
:100DF0001398884204D10620FFF716FA044619E03A
:100E0000FB491398884204D10820FFF70DFA0446E5
:100E100010E0F8491398884204D13020FFF704FA13
:100E2000044607E0F4491398884203D13220FFF7C3
:100E3000FBF904464FF0FF3A002010900027EFA185
:100E400003C9CDE90E01012655E000254BE0002045
:100E50000794CDE90440000740EA14102107CDE9CA
:100E600002100846A6FB0002039906FB0121CDE90A
:100E700000017019149900FB01FB002003465A463B
:100E8000CDE908B0DDE9000101F09EFECDE90C01DD
:100E9000DCA3DDE90C010CCB104019408146CDE903
:100EA000080100210D988046CDE90801B9F1004FF5
:100EB00003D9C9F1000908F10108B8F1000F02D007
:100EC000B8F5803F00D90DE0D1450AD2CA46404668
:100ED0000021CDE90E81109537465FEA0A0900D15D
:100EE00003E000BF6D1CB542B1D300BFBAF1000FE3
:100EF00000D102E0761C0F2EA7D900BFBFA00CC8FE
:100F0000DDE90E0159405040084302D115B0BDE85B
:100F1000F08F10983918DDE90E20A1FB023201FB99
:100F20000020CDE90830200900FB07FB0020CDE9B7
:100F300006B001465846DDE9082301F045FECDE93B
:100F400004010B9014990B98814204D914990B98C1
:100F5000A1EB000A03E00B991498A1EB000A6420AE
:100F60000AFB00F01499B0FBF1FABAF1030F6BD24F
:100F70009F491398884231D11398007B40F080003C
:100F800013990873DDE90E01000A40EA0160090ABD
:100F90009EA2CDE90801D2E9003218401140CDE906
:100FA0000601C1B21398017198A3DDE90E100CCBB4
:100FB00011401840CDE90810139801701398007B78
:100FC00000F07F0013990873F02000EA07101099D1
:100FD00001F00F0108431399886233E01398007BF6
:100FE00040F0800013990873DDE90E01000A40EA21
:100FF0000160090ACDE90801014684A20998D2E9F5
:10100000003219401040CDE90610139801717FA3FA
:10101000DDE90E010CCB10401940CDE90801C1B249
:10102000139801701398007B00F07F0013990873E8
:10103000F02000EA0710109901F00F0108431399FE
:1010400081F828000120119011985FE770B50446DF
:101050000D466648844208D06548844205D06548FC
:10106000844202D06448844200D103E0CF2169A0C9
:1010700001F064FB687940B16879012805D068798E
:10108000022802D06879032800D103E0D02161A0B2
:1010900001F054FBA87910B1A879012800D103E030
:1010A000D1215CA001F04AFB287958B128790128A8
:1010B00008D02879022805D02879032802D0287979
:1010C000042800D103E0D22152A001F037FB4748A9
:1010D000844203D101210820FFF7C3F84448844229
:1010E00003D101211020FFF7BCF84248844203D10C
:1010F00001210806FFF7B5F83F48844203D10121DA
:101100004806FFF7AEF83A48844221D10720207202
:101110000020207200E02678207D10F0010FFAD127
:10112000802084F8300000BF207D10F0200FFBD01D
:10113000002084F83000606020732062207484F8FE
:101140004C0084F8540084F85000267E267D18E078
:10115000072020720020207200E02678207D10F009
:10116000010FFAD1802084F8300000BF207D10F0FC
:10117000200FFBD0002084F83000606020732062D4
:10118000267D1D48844202D1002084F82400204698
:101190002968FFF727FE1648844203D1207B00F020
:1011A000C00602E0207B00F0C006687930B101285B
:1011B00006D0022807D0032809D007E000BF09E0C5
:1011C00046F0010606E046F0020603E000BF46F0E6
:1011D000030600BF00BF287960B346F008062879EF
:1011E00001282CD002282CD0032824E000C0004085
:1011F000000001400080094000C0094000000000DC
:1012000000000000FFFFFFFF00000000FF000000E3
:10121000000000002E2E5C46574C49425C736F75EF
:101220007263655C6C7063313778785F7561727476
:101230002E63000010E007D004280BD107E000BFA8
:1012400009E046F0100606E046F0200603E046F00E
:10125000300600E000BF00BFA87928B1012802D104
:1012600046F0040601E000BF00BF00BFFB48844217
:1012700001D1267300E0267370BD70B504460D469B
:10128000F748844208D0F548844205D0F5488442A6
:1012900002D0F548844200D105E04FF47C71AFF2F2
:1012A0008C0001F04BFA0DB1012D00D105E040F2A8
:1012B000F131AFF2A00001F041FA012D10D1E74861
:1012C000844206D194F8300040F0800084F8300069
:1012D00014E094F8300040F0800084F830000DE015
:1012E000DE48844205D194F83000002084F83000B4
:1012F00004E094F83000002084F8300070BD10B590
:101300000446D748844208D0D448844205D0D54802
:10131000844202D0D448844200D105E040F29B11BF
:10132000AFF2101001F00AFA00212046FFF7A5FFE6
:10133000CB48844203D100210820FEF792FFC74822
:10134000844203D100211020FEF78BFFC548844260
:1013500004D100214FF08070FEF783FFC248844221
:1013600004D100214FF00070FEF77BFF10BD4FF459
:101370001651016003214171002101718171704793
:1013800070B505460C46B648854208D0B34885423C
:1013900005D0B448854202D0B348854200D105E06B
:1013A00040F2DF11AFF2941001F0C8F9AB4885426A
:1013B00001D12C7000E02C7070BD10B50446A84817
:1013C000844208D0A548844205D0A648844202D071
:1013D000A548844200D105E04FF4FC71AFF2CC1077
:1013E00001F0ACF99D48844201D1207810BD2078ED
:1013F000FCE72DE9FF5F04460D461646AB4637462F
:101400000398012829D14FF0000823E04FF0FF395D
:1014100005E0B9F1000F00D105E0A9F10109207D37
:1014200010F0200FF5D000BFB9F1000F00D113E08C
:101430004FF0100A09E01BF8011B2046FFF7A0FF40
:10144000AAF1010A7F1E08F10108BAF1000F01D0CC
:10145000002FF0D1002FD9D11CE04FF0000816E08A
:10146000207D10F0200F00D113E04FF0100A09E0AA
:101470001BF8011B2046FFF783FF7F1EAAF1010A1C
:1014800008F10108BAF1000F01D0002FF0D1002FB0
:10149000E6D100BF404604B0BDE8F09F2DE9F05F03
:1014A00004460D4616461F46AB46B046012F21D1D5
:1014B0004FF000091AE04FF0FF3A05E0BAF1000FD3
:1014C00000D105E0AAF1010A207D10F0010FF5D04E
:1014D00000BFBAF1000F00D10BE02046FFF76DFF0F
:1014E0000BF8010BA8F1010809F10109B8F1000F8F
:1014F000E1D114E04FF000090DE0207D10F0010F64
:1015000000D10BE02046FFF758FF0BF8010B09F163
:101510000109A8F10108B8F1000FEED100BF48465B
:10152000BDE8F09F10B504464D48844208D04B48B2
:10153000844205D04B48844202D04B48844200D1BB
:1015400005E040F28A21AFF2343001F0F7F8434869
:10155000844204D1207B40F04000207303E0207BD4
:1015600040F04000207310BD2DE9F04104460D46C7
:1015700016463B48844208D03848844205D0394852
:10158000844202D03848844200D105E040F2B121C3
:10159000AFF2803001F0D2F80EB1012E00D105E09B
:1015A00040F2B221AFF2943001F0C8F8072D15D205
:1015B000DFE805F00406080A0C0E110001270DE013
:1015C00002270BE0042709E0082707E0802705E051
:1015D0004FF4807702E04FF4007700BF00BF1F4850
:1015E000844214D15DB1012D09D0022D07D0052D03
:1015F00005D0062D03D0032D01D0042D00D116E017
:1016000040F2CE21AFF2F43001F098F80FE03DB196
:10161000012D05D0022D03D0052D01D0062D00D1BE
:1016200005E040F2D221AFF2144001F087F8012E1C
:101630000AD10A48844203D16068384360601BE0E5
:1016400060683843606017E0044884420ED16168E6
:1016500040F28F30B843014061600DE0000001406E
:1016600000C000400080094000C00940616840F2AD
:101670000730B84301406160BDE8F08110B5044611
:10168000F848844208D0F848844205D0F74884429C
:1016900002D0F748844200D105E04FF44071AFF228
:1016A0008C4001F04BF8F048844201D1007D10BD20
:1016B000207DFCE710B50446EA48844208D0EA4899
:1016C000844205D0E948844202D0E948844200D1EE
:1016D00005E040F21731AFF2C44001F02FF8A068E6
:1016E00040F2CF31084010BD0146087D10F0400F98
:1016F00001D0002070470120FCE770B504460D467C
:101700000026D848844208D0D748844205D0D7481C
:10171000844202D0D648844200D105E040F23D31F7
:10172000AFF2105001F00AF8E87840B1E8780128EB
:1017300005D0E878022802D0E878032800D105E037
:1017400040F23E31AFF2345000F0F8FFA87810B10B
:10175000A878012800D105E040F23F31AFF24C50AB
:1017600000F0ECFF287810B12878012800D105E0BE
:101770004FF45071AFF2645000F0E0FF687810B1A0
:101780006878012800D105E040F24131AFF27C5089
:1017900000F0D4FF46F00106E87830B1012806D009
:1017A000022807D0032809D007E000BF09E046F06F
:1017B000400606E046F0800603E000BF46F0C006A3
:1017C00000BF00BF6878012801D146F004062878E0
:1017D000012801D146F00206A878012801D146F07F
:1017E0000806A148844203D106F0CF00207202E02F
:1017F00006F0CF00207270BD00218170C170012100
:101800000170417070472DE9F04104460D461646BF
:101810009448844208D09448844205D09348844236
:1018200002D09348844200D105E04FF46671AFF2D4
:101830001C6000F083FF0EB1012E00D105E040F2E4
:101840009931AFF2306000F079FF0027012E09D105
:101850002878012801D147F002076878012801D1D2
:1018600047F004078048844215D1012E10D1207B17
:1018700040F080002073002020702071207B20F039
:10188000800020731020A06247F00100206218E061
:101890000020206215E0012E11D1207B40F0800055
:1018A0002073002020702071207B20F080002073A6
:1018B000102084F8280047F00100206201E0002099
:1018C0002062BDE8F08170B504460D46654884424B
:1018D00008D06548844205D06448844202D06448F8
:1018E000844200D105E040F2D931AFF2D86000F077
:1018F00025FF5D48844203D1206A2843206202E02C
:10190000206A2843206270BD70B504460D465848D1
:10191000844200D105E040F21A41AFF2087000F0B5
:101920000DFF0DB1012D00D105E040F21B41AFF2DA
:101930001C7000F003FF012D06D194F8240040F044
:10194000020084F8240006E02DB994F8240000F089
:101950003D0084F8240070BD70B504460D4644482F
:10196000844200D105E040F23241AFF2587000F0FD
:10197000E5FE0DB1012D00D105E040F23341AFF29B
:101980006C7000F0DBFE012D06D194F8240040F0CD
:10199000010084F8240005E094F8240000F03E00E3
:1019A00084F8240070BD2DE9F04104460D4630480E
:1019B000844200D105E040F25341AFF2A87000F03C
:1019C000BDFE6DB1012D0BD0022D09D0032D07D026
:1019D000042D05D0052D03D0062D01D0072D00D1F3
:1019E00005E040F25441AFF2D47000F0A7FE680762
:1019F000860E94F8240020F0380746F004000743D0
:101A000007F03F0084F82400BDE8F0812DE9F041A3
:101A100004460D46174600261348844200D105E0CF
:101A200040F27341AFF6140000F088FE0DB1012DB5
:101A300000D105E040F27441AFF6280000F07EFED0
:101A40000FB1012F00D105E040F27541AFF63C0027
:101A500000F074FE15B1012D0CD101E001260AE061
:101A6000022608E000C0004000000140008009405C
:101A700000C0094000BF00BF012F03D1207C3043CC
:101A8000207404E0217CF320B04301402174BDE8C0
:101A9000F0812DE9F04104460D46164697488442F0
:101AA00000D105E040F29B41AFF6980000F046FE01
:101AB0001DB1012D01D0022D00D105E040F29C4165
:101AC000AFF6B00000F03AFE0EB1012E00D105E0F5
:101AD00040F29D41AFF6C40000F030FE25B1012D6B
:101AE00004D0022D06D103E0102704E0402702E0D5
:101AF000802700E000BF00BF012E03D1207C3843C7
:101B0000207404E0207CF321B94308402074BDE830
:101B1000F08110B504467948844200D105E040F2D6
:101B2000C641AFF6101000F009FE207E10BD70B562
:101B300004460D467148844200D105E040F2DA4186
:101B4000AFF6301000F0FAFDA87810B1A87801289F
:101B500000D105E040F2DB41AFF6481000F0EEFDA9
:101B6000E87810B1E878012800D105E040F2DC41C6
:101B7000AFF6601000F0E2FDE879FF2800DA05E03A
:101B800040F2DD41AFF6741000F0D8FD687910B175
:101B90006879012800D105E040F2DE41AFF68C10F3
:101BA00000F0CCFD287910B12879012800D105E09A
:101BB00040F2DF41AFF6A41000F0C0FDA879FF2885
:101BC00000DA05E04FF49C61AFF6B81000F0B6FD06
:101BD000287810B12878012800D105E040F2E141D1
:101BE000AFF6D01000F0AAFD687810B1687801282F
:101BF00000D105E040F2E241AFF6E81000F09EFDB2
:101C00000026E87801280ED146F0100668790128F0
:101C100001D146F020062879012801D146F00806B6
:101C2000E87984F854002878012801D146F00106AB
:101C3000A878012804D146F00406A87984F8500059
:101C4000687808B946F0020606F03F0084F84C00B8
:101C5000207B40F03800207370BD012906D190F838
:101C60004C2022F0020280F84C2005E090F84C2035
:101C700042F0020280F84C2070472DE9F0470446FC
:101C80000D4616469946B9F1000F14D094F80C8011
:101C9000474627F01007277301233246294620467E
:101CA000FFF7A7FB824600BF207D10F0400FFBD05E
:101CB00084F80C800BE00123324629462046FFF7CA
:101CC00098FB824600BF207D10F0400FFBD05046AD
:101CD000BDE8F08713B5044601231A4601A9204642
:101CE000FFF7CBFF1CBD70B504460D46164600231A
:101CF000324629462046FFF7C0FF70BD0000014074
:101D00002148C078012804D0022803D0032805D137
:101D100002E003E0002070470020FCE700BF012044
:101D2000F9E710B51848C078012804D0022804D07B
:101D300003280AD107E0002010BD322000F0D4FEB5
:101D400000F01BFF01E00020F6E700BF0120F3E7F1
:101D50000D4880780D49085C0D49087001207047D6
:101D60000948C07808498978084A505401207047CA
:101D700008480078064908700120704702488078BA
:101D800004490870012070472C0000100500001065
:101D900050000010040000100020DC490880DC49DD
:101DA0000870DC4908704FF00110DB490860002022
:101DB000DA490860DA490860704710B5D94900204F
:101DC00000F03EFB10BD10B5D7488088102801DD1B
:101DD000102401E0D4488488D3482246016880203A
:101DE00000F05FFB0446D04800682044CE490860FC
:101DF00008468088001B888010BD10B5CA4801685D
:101E0000002000F01DFB0446C74800682044C64976
:101E1000086008468088001B888010BD10B500222D
:101E20001146802000F03DFB10BD10B5BF490020D9
:101E300000F006FB10BD10B50446082C6FD2DFE899
:101E400004F06E04F0EF6E6EEEEDFFF7B6FFB549ED
:101E50000978C80900F0ABFAB248C088B249888056
:101E6000B0480078C0F3411010B101287BD192E056
:101E7000AC4840780C2877D2DFE800F0060D8A15D0
:101E80008A1D333A41555E8300F0DCFF00B9D7E08C
:101E9000FFF799FF7DE0002001F034F800B9CFE0B2
:101EA000FFF7BCFF75E0012001F02CF800B9C7E096
:101EB000FFF7B4FF6DE000BF9A480078C0F304005C
:101EC00030B99848807840F080009149087001E06E
:101ED000002001E000BF012000B9B1E0FFF79EFF44
:101EE00057E000F02DFF00B9AAE0FFF76CFF50E0CB
:101EF000002000F084FA00208B49888049E000BF70
:101F000088480078C0F3040018B982488649086000
:101F100001E0002001E000BF012008B990E0F2E0FC
:101F2000FFF751FF35E001F063F800B988E0FFF7F3
:101F300075FF00F0ABFB2CE000BF7A480078C0F3DF
:101F40000400012814D17348007870B175480079F5
:101F500077490978884208DA724800797549084457
:101F60007149086003E06AE012E0002004E001E04B
:101F7000002001E000BF012000B961E0FFF723FF6E
:101F800007E001F011F900B95AE0FFF747FF00E060
:101F900056E000BF5BE063480078C0F3040020B166
:101FA000012803D0022848D146E049E05D48007985
:101FB000002840D15B4840780C283BD2DFE800F095
:101FC0003A0614253A3A3A3A3A101E33FFF798FE89
:101FD00028B1564854490860FFF7F5FE2EE029E085
:101FE00052485149086029E0FFF7B2FE28B14F4836
:101FF0004D490860FFF7E7FE20E01BE0FFF7B0FE69
:1020000010B1FFF70BFF19E014E0FFF7B1FE48B184
:10201000464845490860FFF7D6FE0FE06FE06AE0EA
:1020200051E016E006E0FFF7A9FE10B1FFF7F6FE5B
:1020300004E000BF00BF03E002E001E007E000BFF2
:10204000802000F0DCF900203749888000BF00BF05
:1020500059E034480078C00932D1334880880028DC
:1020600030D0FFF7CAFE3048808800282AD12D489A
:102070000078C0F3411010B101281FD100E0DFE764
:1020800028480078C0F3040020B1012803D00228BA
:1020900012D110E0D4E72348007958B9214840789C
:1020A000092806D1FFF73DFE10B1FFF7B7FE04E0A7
:1020B00000BF00BFC4E7C3E7C2E700E0C0E701E03C
:1020C000FFF7B3FE1FE017480078C009012802D1CE
:1020D000FFF779FE0EE00E48007810F0800F09D06F
:1020E0000B48007800F07F00094908700846007826
:1020F00000F083F807E0002000F08EF903E0802074
:1021000000F08AF900BF00BF10BD000010000010F1
:10211000120000101300001014000010180000102E
:102120001C0000102C0000102400001050000010B3
:10213000200000102100001001460A07D00E11F007
:10214000800F00D0401C70471021FF4A1160FF49EA
:10215000C1F8100200BFFE49096811F0100FFAD053
:1021600070471022F84B1A60F84AC2F8100200BFFC
:10217000F74A126812F0100FFAD01022F24B1A60D0
:10218000F24AC2F8101200BFF14A126812F0100FA2
:10219000FAD0704710B503460C461020EA49086093
:1021A0001846FFF7C9FF4FF4A06141EA0040E74934
:1021B000C1F8100200BFE648006810F0100FFAD016
:1021C0001020E1490860E148C0F8104200BFE04833
:1021D000006810F0100FFAD010BD01463020DA4A26
:1021E0001060DA48C0F8101200BFD948006810F03B
:1021F000200FFAD0D7480068704710B5044644F065
:1022000080004FF4807242EA0041D348FFF7A9FFF3
:1022100044F080004FF4807242EA0041CE48FFF75C
:10222000A0FF10BD0020CD4908604FF01000C74945
:10223000C1F84C024FF00100C84908604FF010008F
:10224000C249C1F84C0200BFC148006810F4807F49
:10225000FAD04FF0FF30C2490860BC49C1F83402DF
:10226000B94908604FF00C00B849C1F80402704742
:1022700000B5BC48406820F07050BA494860084634
:10228000406840F0A05048600846C068B649084021
:10229000B449C8600846C068B4490843B149C86039
:1022A0000846006920F4402008610846006940F4AF
:1022B00080200861AE48006840F00040AD49C1F898
:1022C000C4004FF01A00AC49086000BFAB4800687A
:1022D00000F01A001A28F9D100BF1820012181400E
:1022E00040094FF0E02202EB8000C0F8001100BF6F
:1022F000FFF798FF0020FFF780FF00BD10B50446F0
:102300000CB1012000E000204FF4807242EA00414D
:102310009B48FFF726FF10BD7047704700B59948EE
:10232000008810F0020F03D097499548FFF719FF76
:1023300000BD704710B504460CB1012000E000203C
:102340004FF4807242EA00419048FFF70AFF0320F1
:102350008F49086000BF7E48006810F4807FFAD083
:102360004FF480707849086010BD10B50446A0781D
:10237000FFF7E2FE0346864801684FF0010000FACD
:1023800003F041EA00017148C0F844127348036049
:10239000A0886E49C1F84C0200BF6D48006810F477
:1023A000807FFAD04FF480706749086010BD704795
:1023B00030B504462046FFF7BFFE764941EA0045A6
:1023C00089132846FFF7CDFE30BD30B504462046C0
:1023D000FFF7B2FE6F4941EA00456F492846FFF713
:1023E000C0FE30BD30B504462046FFF7A5FE694962
:1023F00041EA004589132846FFF7B3FE30BD30B5EA
:1024000004462046FFF798FE624941EA00455E49CE
:102410002846FFF7A6FE30BD30B504462046FFF73C
:102420008BFE5C4941EA004589132846FFF799FE77
:1024300030BD10B5044659492046FFF7ABFE10BD2C
:10244000F0B504460F4604F00F00012101EB8000B7
:102450005349086000BF5348056815F4006FFAD06F
:10246000C5F30905002606E04F480068386007F10B
:10247000040706F10106E81CB6EB900FF4D3002028
:102480004749086004F00F0141F2482040FA01F08A
:1024900010F0010F03D141492046FFF77BFE28468B
:1024A000F0BDF0B504460D46164604F00F000221BB
:1024B00001EB80003A4908602448C0F824624FF0DC
:1024C000000706E028683949086005F1040507F1AE
:1024D0000107F01CB7EB900FF4D3002030490860DF
:1024E00033492046FFF756FE3046F0BD00B531486F
:1024F000FFF72AFE3048FFF770FE03462E48FFF72D
:102500006CFE43EA0023184600BD2DE9F047104851
:10251000046814F0080F59D008200B4908601848C7
:10252000FFF712FE2548FFF758FE054615F0100F7D
:1025300003D0FFF777FE00F0A5F815F0080F44D0A0
:1025400015F0040F3FD03BE008C2005000C000501F
:1025500000C2005014C200500005D00048C2005014
:1025600038C2005000C00240CFFFFFCF1000002053
:10257000C4C00F4000C00F40F4CF0050F8CF00504F
:102580000005FE0010000010000101000005D80049
:1025900044C2005000054000000120000005F20088
:1025A00028C2005020C2005018C200501CC2005067
:1025B0000005FA000005F5000002F5000002FE002B
:1025C000FFF7AAFE01E0FFF7A8FE4DE014F0040FAC
:1025D00049D04FF000092548D0F8308200263CE071
:1025E000C84500D13BE00120B04010EA080F32D0CE
:1025F0000120B04040EA090977080120B0401C4999
:10260000086000BF1B48006810F0200FFAD01A487D
:10261000056816F0010F15D156B915F0040F07D053
:102620001648006820B1154801680120884713E06A
:10263000124850F8270070B1104850F827100220B7
:10264000884708E00D4850F8270020B10B4850F8A3
:1026500027100320884700BF761C202EC0D300BF60
:1026600004200749086000BFBDE8F08700C00050A3
:1026700038C2005000C2005014C20050B4330000F1
:1026800008C2005010B5FFF787FB10BD10B5144805
:10269000007838B1312000F027FA08221149812052
:1026A000FFF7FFFE10BD022805D0032807D1002147
:1026B0000D4A117003E001210C4A117000BF00BFE8
:1026C0007047704770477047704770477047704752
:1026D00070477047704770477047704770470000F9
:1026E00013000010400000103F0000103E000010DA
:1026F00010B5FDF7A1FEFDF75BFFFDF777FF00BF0B
:1027000002210F4A10684FF2FF0200EA02000D4A50
:1027100040EA020242EA01204FF0E022C2F80C0D2A
:1027200000BF00F029F9FFF7A3FD0120FFF7E6FD48
:1027300000F0FAF901E000F05CF8FCE700BFFEE70A
:102740000CED00E00000FA0570B502460023002001
:102750001FE0444C444D95F90050665D1C465D1CDD
:102760006BB2165500243F4D3F4E96F90060AC55B4
:102770003D4D95F900506C1CE51704EB15652D12C5
:10278000A4EB05256DB2384E35704C1E61B2441C69
:1027900060B2364C94F90040334D95F90050AC428C
:1027A00001D00029D5DC70BD3149097821B101295A
:1027B0000CD002291AD10FE0AA2803D101212C4AFA
:1027C000117002E000212A4A117010E02949487076
:1027D0000221274A11700AE0264908700121244A83
:1027E000521E11700021521C117000E000BF00BF8A
:1027F00070477CB5684600210A4606C00821684635
:10280000FFF7A2FFC4B204B97CBD002505E01DF8A6
:102810000500FFF7C9FF681CC5B2A542F7DB1448E5
:10282000401E007801281CD112480078012804D0ED
:1028300002280ED003280ED10CE000200E490870AB
:1028400048700520887000F08EF9042000F04CF9E3
:1028500002E001E000E000BF00BF00200449491E83
:102860000870D1E7600000103D0000103C0000102F
:1028700035000010360000104000001000B585B093
:1028800000208DF80C000120049003AA00214FF0D5
:102890004020FEF77CF800208DF8000046F2A810DA
:1028A000029001208DF801008DF8030000208DF8C2
:1028B000020069464FF04020FEF768F900BF012092
:1028C000002806DA0220C00027496FF0020288546F
:1028D00004E00220C00025490122885400BF00BF47
:1028E000012101FA01F049094FF0E02202EB8101D8
:1028F000C1F8000100BF4FF04020FEF72AF9002187
:102900004FF04020FEF704F905B000BD10B50021DE
:102910004FF04020FDF7DDFF15480068401C1449CA
:102920000860302000F0E0F8114800681149884242
:1029300002D900200E49086010BD10B54FF04020AC
:10294000FEF707F901214FF04020FEF7E1F810BD36
:1029500010B500214FF04020FEF7DAF810BD00203E
:10296000034908607047000018ED00E000E400E053
:1029700038000010C02709001FB500208DF808009E
:1029800002208DF80A0000208DF80B008DF80C0055
:102990008DF8090002A8FDF7D6FE01208DF8090088
:1029A00002A8FDF7D0FE4FF4E130009003208DF82F
:1029B000050000208DF804008DF806006946534894
:1029C000FEF744FB01215148FEF757FC012200218C
:1029D0004E48FEF7C9FD00BF082001218140400993
:1029E0004FF0E02202EB8000C0F8001100BF00BFF2
:1029F0000820002805DA0120C000454A042150546F
:102A000004E00120C00043490822885400BF02208E
:102A10008DF808008DF80A0000208DF80B008DF865
:102A20000C008DF8090002A8FDF78DFE01208DF83D
:102A3000090002A8FDF787FE4FF4E1300090032063
:102A40008DF8050000208DF804008DF80600694619
:102A50003148FEF7FBFA01212F48FEF70EFC1FBD9F
:102A600001462E4A92F90020501CC21700EB126258
:102A70001212A0EB02222A4B93F900309A4202D1A3
:102A80004FF0FF3070472748244A92F900208154C4
:102A9000224A92F90020501CC21700EB1262121257
:102AA000A0EB022252B21D4B1A700020EAE770B56B
:102AB00000BF16488068C4B2641004F00704012CFB
:102AC0000ED0022C05D0032C02D0062C09D106E032
:102AD00008E00E4806783046FFF7C2FF02E001E04A
:102AE00000E000BF00BF70BD0849087000BF074983
:102AF000097D11F0400FFAD070470749087000BFF8
:102B00000549097D11F0400FFAD0704700C0094017
:102B100018ED00E000E400E0000001403C0000107F
:102B20003D00001060000010AA21224A117001200F
:102B300004E000211F4A1154411CC8B20828F8DBE8
:102B4000704730B5052900DD30BD1A4C6070A170AA
:102B5000002305E0D55C174CE41CE5545C1CE3B293
:102B60008B42F7DBF0E710B5082212498120FFF70E
:102B700098FC01201049087010BD10490978104ACE
:102B800011700E49497851700C4989789170002074
:102B900007E0C11C094A525C0949C91C0A54411C7E
:102BA000C8B2074989788142F3DC0121054A1170D6
:102BB00070470000400000103F000010500000105F
:102BC000480000103E00001053EA020C00F069803B
:102BD0002DE9F04B4FF00006002B1FBFB3FA83F531
:102BE00003FA05F424FA05F65E4012BF1643B2FA62
:102BF00082F502FA05F4C5F120051EBF22FA05FC94
:102C000044EA0C04203556EA044C4FEA144418BF39
:102C1000641C4FF000084FF00009904271EB030C68
:102C200039D3002919BFB1FA81F701FA07F6B0FAD2
:102C300080F700FA07F6C7F120071EBF20FA07FC4D
:102C400046EA0C062037B6FBF4FCA7EB0507103F5D
:102C500007F01F0BCBF120060CFA0BFB2CFA06F643
:102C600044BFB3460026202FA4BF5E464FF0000BA2
:102C70005BEA060C08BF4FF0010B19EB0B09ABFB2D
:102C8000027C48EB0608C01B06FB02CC0BFB03CC06
:102C900071EB0C01C1E70B46024641464846BDE8D0
:102CA000F08B13B54FF000004FF00001AFF3008040
:102CB000BDE81C407047704770477047754600F08C
:102CC00029F8AE4605006946534620F007008546C0
:102CD00018B020B5FDF756FABDE820404FF00006C9
:102CE0004FF000074FF000084FF0000B21F00701F4
:102CF000AC46ACE8C009ACE8C009ACE8C009ACE837
:102D0000C0098D4670470446AFF300802046FDF7AA
:102D100026FA0000004870476001001003494FF098
:102D20001800ABBE7047000015000000260002002E
:102D300001487047704700006401001070470000B0
:102D400010B539480078C0F3040010B101285FD1F4
:102D500039E03548C078012804D0022807D003287C
:102D60002DD118E03148324C2060122329E031493E
:102D7000002204E0087808B148880144521C2A481F
:102D800080789042F6D1087808B9002010BD284814
:102D900001604B8815E02849002204E0087808B15A
:102DA00008780144521C204880789042F6D1087877
:102DB00008B90020EAE71E4801600B7801E0002016
:102DC000E4E700BF26E01848C078212804D0222874
:102DD0000DD0232818D115E01348007908B1002040
:102DE000D4E714481230124C206009230EE00E483C
:102DF000007908B10020C9E710480D4C2060104848
:102E0000038803E00020C1E70020BFE700BF01E026
:102E10000020BBE700BF06488088984201D9044CD7
:102E2000A3800120B2E700002C0000101A3300003C
:102E3000240000102C3300005C330000EA32000054
:102E40001833000027480078C0F3040020B101289F
:102E500006D0022841D116E02348244B18603EE0FA
:102E60002348007860B11F480079224B1B789842B4
:102E700006DA0020204B188018461C4B186001E031
:102E8000002070472BE01748007900F08F0111F007
:102E9000800F05D001F00F034FF48030984001E01F
:102EA0000120884002461248007810B911F00F0F37
:102EB00010D11248006810420CD01148006810422E
:102EC00001D0012000E000200B4B18801846074B72
:102ED000186001E00020D4E701E00020D1E700BF46
:102EE0000120CEE72C00001010000010240000107C
:102EF00013000010200000105000001014000010FB
:102F00001800001070B5044633480078C0F3040080
:102F100020B101281DD0022858D11CE02E4840883D
:102F2000012813D144B1FFF704FA2C48008840F07F
:102F300002002A4908800BE00020FFF7FAF9274831
:102F4000008820F002002549088001E0002070BDC3
:102F50003EE00020FBE72048007900F08F0515F0E7
:102F6000800F05D005F00F014FF48030884001E05C
:102F70000120A84006461A48007820B315F00F0F2C
:102F800021D01848006830421DD013484088C0B98D
:102F900044B12846FFF733FA13480068304312491A
:102FA000086012E011480068304201D00120CEE7ED
:102FB0002846FFF731FA0C480068B0430A49086018
:102FC00003E00020C3E70020C1E701E00020BEE7E6
:102FD00000BF0120BBE700002C0000101000001013
:102FE0001300001014000010180000101C00001046
:102FF0002DE9F041002763480078C0F30400002861
:103000007ED16048807800287BD05F4C7EE060787D
:10301000022804D0042851D0052870D150E06079EE
:1030200058498978884245D1564880785749087070
:10303000207957490870002503E00020554948557C
:103040006D1C002DF9D0012514E00120A840524943
:103050000968084202D02846FFF7B7F94FF48030DC
:10306000A8404D490968084203D045F08000FFF7A9
:10307000ACF96D1C102DE8D34FF0011046490860E3
:10308000002046490860464908600120FFF752F9D0
:10309000E07910F0400F06D04248008840F001006F
:1030A0004049088009E03F48008820F001003D4980
:1030B000088002E06088044428E020E0E7781EE011
:1030C000E7B9A07800F08F0515F0800F05D005F066
:1030D0000F014FF48030884001E00120A8400646EF
:1030E0002D48006830432C4908602046FFF73DF921
:1030F0002846FFF75DF92846FFF774F900BF01E0A5
:103100003AE008E000BF2078044400BF207800289F
:103110007FF47DAF26E000201C490870012514E0F3
:103120000120A8401C490968084202D02846FFF740
:103130004CF94FF48030A84017490968084203D081
:1031400045F08000FFF741F96D1C102DE8D34FF0DA
:1031500001101149086000201049086010490860FA
:10316000FFF7E8F80748807808490978884202D0D4
:103170000020BDE8F08101E00020FAE700BF012057
:10318000F7E700002C0000102C33000013000010A3
:103190002000001021000010140000101800001082
:1031A0001C000010100000102DE9F05F0025002623
:1031B0000027A84643480078C0F3040001287BD1CB
:1031C0004148007810B90020BDE8F09F4FF0000B97
:1031D0003E4C6CE06078022804D004280BD005280F
:1031E00061D11BE0607938490978884202D0608853
:1031F00004445CE057E0A578E6784FF000083148D9
:103200000079A84209D12F488078B04205D14FF00B
:10321000010B2F48475D01464E5544E0294800798F
:10322000A8423FD1A07800F08F0919F0800F05D097
:1032300009F00F014FF48030884002E0012000FACD
:1032400009F082461F488078B04217D121480068B3
:1032500040EA0A001F4908601F48006820EA0A0087
:103260001D4908602046FFF780F84846FFF7A0F8A0
:103270004846FFF7B7F848EA0A0813E0BE4211D102
:1032800018EA0A0F0ED11348006820EA0A00114913
:1032900008601148006820EA0A000F4908604846A3
:1032A000FFF793F800BF00BF2078044400BF2078E8
:1032B00000288FD102E0FFE7002085E700BF5846D5
:1032C00082E700002C000010130000102C330000D7
:1032D00021000010140000101800001010B5FFF7B6
:1032E00027FD4FF00001016010BD05010906A10195
:1032F000050719E029E715002501950875018102E8
:1033000095017508810395067508150025FF0507C9
:10331000190029FF8100C0002D00120110010000DA
:10332000001059C201220001010203010902290013
:10333000010100803209040000030300000009219C
:1033400000010001222D000705810308000A07057E
:10335000010308000A0705840308000A040309049E
:10336000120341004E00410053004F004E0049003F
:10337000430020034B004500590042004F0041002C
:1033800052004400200043004F004E004600490018
:1033900047001A0330003000300031004100300097
:1033A00030003000300030003000300008034800AA
:1033B00049004400371E0000A7260000000000005E
:1033C00000000000000000000000000000000000FD
:1033D00000000000000000000000000000000000ED
:1033E00000000000000000000000000000000000DD
:1033F0000000000014340000000000105000000025
:103400000801000064340000500000107003000048
:103410002401000000E1F5050000000000000000AC
:10342000000000000000000000000000000000009C
:10343000000000000000000000000000000000008C
:10344000000000000000000000000000000000007C
:10345000000000010000000000000000000000006B
:043460000000000068
:04000005000000CD2A
:00000001FF
